:020000040800F2
:1000000000400020355E0008B1480008B5480008EF
:10001000B9480008BD480008C148000800000000B9
:10002000000000000000000000000000C5480008BB
:10003000C948000800000000CD480008613D0008E4
:10004000A95E0008A95E0008A95E0008A95E000874
:10005000A95E0008A95E0008A95E0008A95E000864
:10006000A95E0008A95E0008A95E0008D148000842
:10007000DD480008A95E000831490008A95E0008B3
:10008000A95E0008A95E0008A95E0008A95E000834
:10009000A95E0008A95E0008A95E0008A95E000824
:1000A000B1490008A95E0008A95E00083D490008A2
:1000B000A95E00080000000000000000A95E000822
:1000C000A95E0008A95E0008A95E00080000000003
:1000D000A95E0008BD490008A95E0008A95E0008E5
:1000E000A95E0008A95E0008A95E000800000000E3
:1000F0000000000000000000000000000000000000
:10010000000000000000000000000000A95E0008E0
:100110000000000000000000A95E000800000000D0
:1001200000000000000000000000000000000000CF
:1001300000000000000000000000000000000000BF
:10014000A95E0008A95E0008000000000000000091
:10015000000000000000000000000000000000009F
:10016000A95E0008A95E0008A95E0008A95E000853
:10017000A95E000800000000000000000000000070
:0801800000000000A95E000868
:1001880010B5054C237833B9044B13B10448AFF3C9
:1001980000800123237010BD08000020000000002B
:1001A800F45E00080C4B43B10C480D4910B5AFF391
:1001B80000800C48036823B910BD0A48036833B9A6
:1001C8007047094B002BF7D0BDE810401847064B85
:1001D800002BF5D0184700BF00000000F45E0008AF
:1001E8000C000020080000200000000081F0004101
:1001F80002E000BF83F0004330B54FEA41044FEA04
:10020800430594EA050F08BF90EA020F1FBF54EA9E
:10021800000C55EA020C7FEA645C7FEA655C00F03A
:10022800E2804FEA5454D4EB5555B8BF6D420CDD0B
:100238002C4480EA020281EA030382EA000083EA8E
:10024800010180EA020281EA0303362D88BF30BD2E
:1002580011F0004F4FEA01314FF4801C4CEA113184
:1002680002D0404261EB410113F0004F4FEA0333E3
:100278004CEA133302D0524263EB430394EA050F6E
:1002880000F0A780A4F10104D5F1200E0DDB02FADD
:100298000EFC22FA05F2801841F1000103FA0EF271
:1002A800801843FA05F359410EE0A5F120050EF137
:1002B800200E012A03FA0EFC28BF4CF0020C43FA68
:1002C80005F3C01851EBE37101F0004507D54FF075
:1002D800000EDCF1000C7EEB00006EEB0101B1F5C5
:1002E800801F1BD3B1F5001F0CD349085FEA30000B
:1002F8004FEA3C0C04F101044FEA445212F5800F16
:1003080080F09A80BCF1004F08BF5FEA500C50F1B2
:10031800000041EB045141EA050130BD5FEA4C0C95
:10032800404141EB010111F4801FA4F10104E9D11E
:1003380091F0000F04BF01460020B1FA81F308BF15
:100348002033A3F10B03B3F120020CDA0C3208DDE1
:1003580002F1140CC2F10C0201FA0CF021FA02F1BC
:100368000CE002F11402D8BFC2F1200C01FA02F12C
:1003780020FA0CFCDCBF41EA0C019040E41AA2BF51
:1003880001EB0451294330BD6FEA04041F3C1CDA19
:100398000C340EDC04F11404C4F1200220FA04F039
:1003A80001FA02F340EA030021FA04F345EA0301E3
:1003B80030BDC4F10C04C4F1200220FA02F001FAA5
:1003C80004F340EA0300294630BD21FA04F0294627
:1003D80030BD94F0000F83F4801306BF81F48011C0
:1003E8000134013D4EE77FEA645C18BF7FEA655C33
:1003F80029D094EA050F08BF90EA020F05D054EA05
:10040800000C04BF1946104630BD91EA030F1EBF09
:100418000021002030BD5FEA545C05D1400049410D
:1004280028BF41F0004130BD14F580043CBF01F500
:10043800801130BD01F0004545F0FE4141F47001E6
:100448004FF0000030BD7FEA645C1ABF19461046C1
:100458007FEA655C1CBF0B46024650EA013406BFC2
:1004680052EA033591EA030F41F4002130BD00BF81
:1004780090F0000F04BF0021704730B54FF480643E
:1004880004F132044FF000054FF0000150E700BFBF
:1004980090F0000F04BF0021704730B54FF480641E
:1004A80004F1320410F0004548BF40424FF000010B
:1004B8003EE700BF42004FEAE2014FEA31014FEA4E
:1004C80002701FBF12F07F4393F07F4F81F060519D
:1004D800704792F0000F14BF93F07F4F704730B50C
:1004E8004FF4607401F0004521F0004120E700BF9F
:1004F80050EA010208BF704730B54FF000050AE026
:1005080050EA010208BF704730B511F0004502D526
:10051800404261EB41014FF4806404F132045FEA28
:10052800915C3FF4DCAE4FF003025FEADC0C18BFCD
:1005380003325FEADC0C18BF033202EBDC02C2F1C3
:10054800200300FA03FC20FA02F001FA03FE40EA55
:100558000E0021FA02F11444C1E600BF70B54FF055
:10056800FF0C4CF4E06C1CEA11541DBF1CEA135537
:1005780094EA0C0F95EA0C0F00F0DEF82C4481EA9F
:10058800030621EA4C5123EA4C5350EA013518BFBF
:1005980052EA033541F4801143F4801338D0A0FBAC
:1005A80002CE4FF00005E1FB02E506F00042E0FB59
:1005B80003E54FF00006E1FB03569CF0000F18BF5F
:1005C8004EF0010EA4F1FF04B6F5007F64F5407407
:1005D80004D25FEA4E0E6D4146EB060642EAC6219A
:1005E80041EA55514FEAC52040EA5E504FEACE2E07
:1005F800B4F1FD0C88BFBCF5E06F1ED8BEF1004F0A
:1006080008BF5FEA500E50F1000041EB045170BD85
:1006180006F0004646EA010140EA020081EA0301C9
:10062800B4EB5C04C2BFD4EB0C0541EA045170BDC5
:1006380041F480114FF0000E013C00F3AB8014F13F
:10064800360FDEBF002001F0004170BDC4F1000488
:10065800203C35DA0C341BDC04F11404C4F1200509
:1006680000FA05F320FA04F001FA05F240EA020064
:1006780001F0004221F0004110EBD37021FA04F69A
:1006880042EB06015EEA430E08BF20EAD37070BD54
:10069800C4F10C04C4F1200500FA04F320FA05F0B3
:1006A80001FA04F240EA020001F0004110EBD370B5
:1006B80041F100015EEA430E08BF20EAD37070BD25
:1006C800C4F1200500FA05F24EEA020E20FA04F3FE
:1006D80001FA05F243EA020321FA04F001F00041AD
:1006E80021FA04F220EA020000EBD3705EEA430E1E
:1006F80008BF20EAD37070BD94F0000F0FD101F04D
:100708000046400041EB010111F4801F08BF013C85
:10071800F7D041EA060195F0000F18BF704703F0C3
:100728000046520043EB030313F4801F08BF013D4A
:10073800F7D043EA0603704794EA0C0F0CEA135506
:1007480018BF95EA0C0F0CD050EA410618BF52EAC0
:100758004306D1D181EA030101F000414FF00000C6
:1007680070BD50EA410606BF1046194652EA4306D4
:1007780019D094EA0C0F02D150EA013613D195EA48
:100788000C0F05D152EA03361CBF104619460AD190
:1007980081EA030101F0004141F0FE4141F470019A
:1007A8004FF0000070BD41F0FE4141F4780170BD8A
:1007B80070B54FF0FF0C4CF4E06C1CEA11541DBFEF
:1007C8001CEA135594EA0C0F95EA0C0F00F0A7F8F1
:1007D800A4EB050481EA030E52EA03354FEA01311E
:1007E80000F088804FEA03334FF0805545EA131331
:1007F80043EA12634FEA022245EA111545EA1065F9
:100808004FEA00260EF000419D4208BF964244F18F
:10081800FD0404F5407402D25B084FEA3202B61AAE
:1008280065EB03055B084FEA32024FF480104FF482
:10083800002CB6EB020E75EB030E22BFB61A7546F6
:1008480040EA0C005B084FEA3202B6EB020E75EB89
:10085800030E22BFB61A754640EA5C005B084FEAF1
:100868003202B6EB020E75EB030E22BFB61A7546BE
:1008780040EA9C005B084FEA3202B6EB020E75EBC9
:10088800030E22BFB61A754640EADC0055EA060E8A
:1008980018D04FEA051545EA16754FEA06164FEACD
:1008A800C30343EA52734FEAC2025FEA1C1CC0D179
:1008B80011F4801F0BD141EA00014FF000004FF006
:1008C800004CB6E711F4801F04BF01430020B4F1C7
:1008D800FD0C88BFBCF5E06F3FF6AFAEB5EB030C7F
:1008E80004BFB6EB020C5FEA500C50F1000041EB7C
:1008F800045170BD0EF0004E4EEA113114EB5C0449
:10090800C2BFD4EB0C0541EA045170BD41F480111B
:100918004FF0000E013C90E645EA060E8DE60CEA23
:10092800135594EA0C0F08BF95EA0C0F3FF43BAF40
:1009380094EA0C0F0AD150EA01347FF434AF95EAF7
:100948000C0F7FF425AF104619462CE795EA0C0FDB
:1009580006D152EA03353FF4FDAE1046194622E7A8
:1009680050EA410618BF52EA43067FF4C5AE50EA82
:1009780041047FF40DAF52EA43057FF4EBAE12E772
:100988004A0011D212F5001211D20DD56FF4787306
:10099800B3EB62520ED44FEAC12343F0004343EA5B
:1009A800505323FA02F070474FF00000704750EAA6
:1009B800013002D14FF0FF3070474FF00000704710
:1009C800084B094A1B6810B5A2FB03230446980983
:1009D80000F06AFC214600224FF0FF3000F014FCC2
:1009E800002010BD04000020D34D6210074A08B54E
:1009F800136843F010031360032000F0F3FB00209A
:100A0800FFF7DEFF03F0DCFD002008BD00200240F8
:100A1800024A136801331360704700BFC00000200A
:100A2800014B1868704700BFC000002010B582B0A5
:100A38000190FFF7F5FF0446FFF7F2FF019B001B4B
:100A48009842F9D302B010BD704700BF704700BF8D
:100A5800704700BF026838B5936803F00303012BA1
:100A680002D00023184638BD1168C907F9D5916826
:100A780001F00D01012909D0426C42F010024264D4
:100A8800826C42F001028264184638BD93680321E3
:100A980043F00203936011600446FFF7C1FF054667
:100AA80023689B68DB07DCD5FFF7BAFF401B0228E9
:100AB800F6D9636C43F010036364A36C43F001033D
:100AC800A3640123CEE700BF026838B5936803F03A
:100AD8000303012B0DD09168174B19420ED0436CBC
:100AE80043F010034364836C43F0010383640120E3
:100AF80038BD1368D907EED5002038BD936843F098
:100B0800010393600446FFF78BFF054604E0FFF7F7
:100B180087FF401B022804D823681B68DB07F6D52B
:100B2800EAE7636C43F010036364A36C43F00103CA
:100B3800A364012038BD00BF3F000080406A436CB9
:100B480043F040034364836C43F004038364FFF77A
:100B58007FBF00BF406AFFF779BF00BF436A5A6C86
:100B680012F0500F18D15A6C196842F400725A6486
:100B7800CA6812F4406F0CD1DA6952B95A6C22F47F
:100B880080725A645A6CD20403D45A6C42F001023F
:100B98005A641846FFF758BFDB6B1B6B184700BF3A
:100BA800F0B583B000230193002800F08E80436CD9
:100BB80013F01003044616D1456C002D78D0226836
:100BC8009168CE0068D591688D0065D4616CC806BF
:100BD80000D463B1636C23F0120343F010030120C7
:100BE800636403B0F0BD436CDB06F3D4026890681D
:100BF80010F00400EED1616C21F4817141F0020122
:100C08006164936803F00303012B00F0A280594943
:100C180065688B6823F440332B438B60A76BE168CE
:100C2800A368E669656A012F43EA010318BF4FF418
:100C3800805043EA4633012D43EA000300F08180E7
:100C4800E16A012902D0206B01430B43916811F03E
:100C58000C0F0BD1D068616BA56920F48040490066
:100C680020F0020041EA8531D0600B43D568424943
:100C7800206929400B430128D3605AD0136B23F015
:100C88000F0313630020A064636C23F0030343F095
:100C98000103636403B0F0BD636C23F0120343F0F7
:100CA80010036364A36C43F00103A364636C91E7CE
:100CB80085640565C56480F8405003F0BFFC226870
:100CC8009368DB0004D52B467AE7012003B0F0BD1A
:100CD8002046FFF7BFFE626CD70603463FF56FAFAD
:100CE80000287FF46CAF606C22682449244D0968A1
:100CF80020F4885020F0020040F002006064906800
:100D080020F040509060A5FB0101890C906801EB30
:100D18008101490040F080509060019101990029BB
:100D28003FF44EAF01990139019101990029F9D198
:100D380046E7116B236A21F00F01013B0B43136354
:100D4800A0E75EB9A16A013943EA414343F480331D
:100D580076E71368D9077FF55AAF5FE7616C21F032
:100D6800220141F020016164A16C41F00101A164FC
:100D780066E700BF0003005007C0F0FF0400002032
:100D880083DE1B4303682DE9F0419C6814F00404DA
:100D980003D002263046BDE8F08190F84030012BA0
:100DA8000546F6D0012380F8403090460F46FFF7FD
:100DB8008BFE064600283CD16B6C296823F47063CF
:100DC80023F0010343F480736B646B6C23F480138A
:100DD8006B64CB689B0105D56B6C23F4405343F4DB
:100DE80080536B646B6CE86B134A13F480531CBF1D
:100DF800AB6C23F00603AB640024104B85F840402D
:100E08008262C3620E4A02631C230B604B6843F084
:100E180010034B60CC6844F0010443463A46CC606A
:100E2800403100F09FFA2A68936843F00403936006
:100E3800B0E785F84040ADE7650B00085D0B00089A
:100E4800450B0008F8B590F84030012B02D1022577
:100E58002846F8BD012780F8407004460E46FFF783
:100E6800F9FD0546F8B9236867649A68BE4222F01E
:100E780080429A6028D09A6842F000429A60FFF750
:100E8800CFFD064604E0FFF7CBFD801B0A2810D8EB
:100E980023689B68002BF6DB636C23F0030343F0A5
:100EA8000103636400E03D46002384F8403028468F
:100EB800F8BD636C23F0120343F01003002263644F
:100EC80084F840200125C3E79A6842F080429A607E
:100ED800D1E700BFF0B5034683B093F84020002067
:100EE800012A019047D01A68CC68956801206D07DF
:100EF80083F8400008D55A6C42F020025A64002258
:100F080083F8402003B0F0BD4868042836D9092882
:100F180070D800EB400040001E38566B0D681F2744
:100F2800874026EA070605FA00F0304350639068C8
:100F380010F00C0F33D1092D4ED905EB45071E3F94
:100F480090698E684FF0070E0EFA07FE20EA0E0031
:100F5800BE4030439061D0680E694F69C0F3C1004C
:100F68004000013E07FA00F0032E00F2EC80DFE8B3
:100F780006F07D73695F022003B0F0BD00EB40000E
:100F8800166B0D6840001F27874026EA070605FAFA
:100F980000F030431063906810F00C0FCBD09068CD
:100FA80000F00300012813D0012C00F0A280D2F831
:100FB800B0100120A84021EA0001C2F8B010102D9D
:100FC80071D0112D00F0AC80122D59D0002096E779
:100FD8001068C007E8D5F9E705EB450E50698E683B
:100FE800072707FA0EF720EA070006FA0EF630433D
:100FF8005061B0E70E2800EB40004FEA40000BD8E4
:101008003C38966B0D681F27874026EA070605FAC5
:1010180000F0304390638AE75A38D66B0D681F2773
:10102800874026EA070605FA00F03043D0637EE7DA
:10103800D76E684E3E4046EA856646F0004738431C
:10104800D066ACE7976E634E3E4046EA856646F04A
:10105800004738439066A2E7576E5E4E3E4046EA28
:10106800856646F000473843506698E7176E594E34
:101078003E4046EA856646F00047384310668EE7EC
:10108800554989684D02A1D4916801F003010129ED
:1010980002D11268D40750D44F498A6842F48002BA
:1010A8008A6000202BE74C4989680F028ED491682A
:1010B80001F0030101297ED0B2F1A04F86D1464943
:1010C800464C8A68464842F400028A602268A0FBBF
:1010D8000212920C02EB820252000192019A002A3B
:1010E8003FF474AF019A013A0192019A002AF9D1AA
:1010F8006CE7D2F8B000AC400443092DC2F8B04008
:101108003CD905EB45008E689469A0F11B010727BF
:101118008F4006FA01F024EA0701014391614EE786
:101128002D498968CE013FF551AF916801F003015F
:10113800012944D11168C80741D55A6C42F02002F0
:101148005A640120DBE6166EA80606F0F8468642C9
:101158002CD0566E06F0F846B04222D0966E06F0B5
:10116800F846B04218D0D66E06F0F846B0427FF482
:1011780016AFD06E20F00040D06610E7681C8E686D
:10118800546900EB400107278F4006FA01F024EA72
:1011980007010143516114E7966E26F000469666F2
:1011A800E1E7566E26F000465666D7E7166E26F03B
:1011B80000461666CDE71168C907BED47CE7B2F1D0
:1011C800A04F7FF403AF04498A6842F080728A60B6
:1011D800FCE600BF00F0FF8300030050040000207D
:1011E80083DE1B43074AD3684FF6FF010B4000021A
:1011F80043F0BF6300F4E06043F400330343D3607B
:10120800704700BF00ED00E0184B70B4DC68C4F311
:101218000224C4F10706042E04F1040328BF04269F
:10122800062B17D9033C0125A540013D2A4001237F
:10123800B340013B1940A140002841EA02010CDB00
:1012480000F1604000F561400901C9B280F800135F
:1012580070BC704700221446E9E7054B00F00F0008
:1012680009010344C9B2197670BC704700ED00E06B
:10127800FCEC00E000F01F0101234009024A8B400A
:1012880042F82030704700BF00E100E043092033F6
:1012980000F01F000122034902FA00F041F8230080
:1012A800704700BF00E100E00138B0F1807F0ED246
:1012B800084B10B4084C5860F02084F82300002232
:1012C800072110469A6019605DF8044B70470120A9
:1012D800704700BF10E000E000ED00E0044A13682A
:1012E80004280CBF43F0040323F004031360704781
:1012F80010E000E000282DD0F0B442688768C66886
:101308000469154903463A4300685D69134F32433F
:1013180022439E6904682A43DD693243014424F468
:101328007F54A7FB01612A4324F0300422430909B2
:1013380002600B4CDC63002089000122196498626A
:10134800D86218635863986383F8200083F82120D3
:10135800F0BC704701207047F8FFFDBFCDCCCCCC66
:1013680000000240F0B590F82040012C0BD090F816
:1013780021400125AC4280F8205006D0002380F897
:1013880020300220F0BD0220F0BD0568076CD0F8BF
:101398003CE0002686632E68BC4026F001064768BC
:1013A8004FF0020C80F821C02E60CEF804406B602C
:1013B800C36A102F0BBFAA60A960E960EA604BB14D
:1013C8002B6843F00E032B602B6843F001032B605E
:1013D8000020F0BD2B6843F00A032B602B6823F034
:1013E80004032B60F0E700BF90F82120022AF8B52B
:1013F80003D0042282630120F8BD0268016C1468DE
:10140800C76B466B24F00E0414601468012524F0A1
:101418000104146005FA01F10024796080F8215074
:1014280080F8204016B1B0472046F8BD3046F8BDD8
:10143800F0B4C56B026C2968046804239340194210
:1014480026680DD077070BD52268920603D4226848
:1014580022F004022260C26A6B60C2B1F0BC10477D
:1014680002239340194214D0B70712D52268920676
:1014780006D42268012122F00A02226080F8211095
:10148800826A6B60002380F82030002AE6D1F0BC25
:101498007047082393400B42F9D03307F7D52168EA
:1014A800066B012321F00E0103FA02F200272160E6
:1014B8006A60836380F8213080F82070002EE6D0BF
:1014C8003346F0BC184700BF8C460968002900F075
:1014D800D9802DE9F04FDFF8C0E183B000254FF047
:1014E800010879E04FEA45090323D0F800B003FA70
:1014F80009F3DB4304F003060BEA030B06FA09F6CB
:101508000AF1FF3A46EA0B06BAF1010F066040F20B
:101518009880C668DCF80820334002FA09F21A43BA
:10152800E300C26054D5584B574A9B6943F0010306
:101538009361936925F0030606F1804603F00103E1
:1015480006F58036019305F00303019AB2689B0003
:101558004FF00F0909FA03F9B0F1904F22EA090A8E
:1015680000F08680494A904200F08480484A9042C0
:1015780000F08380474A90420BBF4FF003090522D1
:1015880009FA03F302FA03F343EA0A03B360DEF845
:101598000030FA43E60354BF13403B43CEF8003013
:1015A800DEF80430A60354BF13403B43CEF80430A2
:1015B800DEF80830E60254BF13403B43CEF808304B
:1015C800DEF80C30A40254BF13403B43CEF80C3075
:1015D800013531FA05F348D008FA05F212EA010795
:1015E800F6D0DCF8044024F0100ABAF1020F7FF4B8
:1015F80079AF4FEAD50900EB890905F00703D9F857
:1016080020609B004FF00F0A0AFA03FB26EA0B0A38
:10161800DCF8106006FA03F343EA0A03C9F820303D
:101628004FEA45090323D0F800A003FA09F3DB4386
:1016380004F0030603EA0A0A06FA09F646EA0A0665
:101648000660866806EA030ADCF80C6006FA09F602
:1016580046EA0A068660D0F804A0C4F300162AEA0F
:101668000202AE401643466053E703B0BDE8F08F70
:10167800002389E708FA03F386E74FF0020909FA1D
:1016880003F381E7704700BF0010024000040048E0
:1016980000080048000C0048000401400369194292
:1016A80014BF0120002070470AB981627047816128
:1016B800704700BF2DE9F0430368D90783B004469B
:1016C80043D5C0494A6802F00C02042A00F084811C
:1016D8004A6802F00C02082A00F07A816368B3F5C0
:1016E800803F00F03D82002B00F0A181B3F5A02FD0
:1016F80000F09782B34B1A6822F480321A601A6895
:1017080022F480221A60AF4DA268EB6A23F00F031F
:101718001343EB62FFF784F94FF4003807460126BC
:1017280005E0FFF77DF9C01B642800F2B98198FA3B
:10173800A8F32A6898FAA8F3B3FA83F303F01F030F
:1017480006FA03F31342ECD023689F0742D59D4A5B
:10175800516811F00C0F00F0F780516801F00C018E
:10176800082900F0ED802269002A00F0D3810122C7
:1017780092FAA2F3B3FA83F303F1845303F58413C3
:101788009B0016461A60FFF74BF94FF00208074610
:101798008C4D05E0FFF744F9C01B022800F2808158
:1017A80098FAA8F32A6898FAA8F3B3FA83F303F02F
:1017B8001F0306FA03F31342ECD02968F82292FAC1
:1017C800A2F26369B2FA82F221F0F80193400B4366
:1017D8002B6023681D074FD458077BD5794BDA69EE
:1017E800D10000F11081DA6942F08052DA61DB69D8
:1017F80003F080530193019B4FF00108724D2B6851
:10180800DA0540F13D81E368012B00F0AF81002B40
:1018180000F05481052B6B4B1A6A00F00F8222F0FE
:1018280001021A621A6A22F004021A62FFF7F8F833
:101838004FF002090746634E012515E099FAA9F30E
:10184800726A99FAA9F3B3FA83F303F01F0305FA4E
:1018580003F3134240F02881FFF7E2F841F288339E
:10186800C01B984200F21C8199FAA9F399FAA9F3CE
:10187800002BE3D0326AE4E7A269002A7BD0012278
:1018880092FAA2F1514B4F4EB1FA81F10B449B00F1
:1018980015461A60FFF7C4F84FF00208074605E03E
:1018A800FFF7BEF8C01B022800F2FA8098FAA8F3E6
:1018B80098FAA8F398FAA8F3726A98FAA8F3B3FA10
:1018C80083F303F01F0305FA03F31342E8D02368F8
:1018D800580783D4E3697BB33A4D6A6802F00C0277
:1018E800082A44D0022B4FF0807300F0458193FA08
:1018F800A3F3B3FA83F303F1845303F584139B0032
:1019080000221A60FFF78CF84FF000740746012692
:1019180005E0FFF785F8C01B022800F2C18094FAA1
:10192800A4F32A6894FAA4F3B3FA83F303F01F0329
:1019380006FA03F31342ECD1002003B0BDE8F083AC
:101948005268D6033FF50FAF022292FAA2F11D4961
:10195800086892FAA2F2B2FA82F202F01F0201219A
:1019680001FA02F2024251D022698A424ED0012085
:1019780003B0BDE8F083012595FAA5F1134B114E8C
:10198800B1FA81F10B449B004FF002081A60FFF78F
:1019980047F8074604E0FFF743F8C01B02287FD842
:1019A80098FAA8F398FAA8F398FAA8F3726A98FA3A
:1019B800A8F3B3FA83F303F01F0305FA03F3134202
:1019C800E9D184E7001002400070004020819010A7
:1019D8004A68D2037FF582AE4FF4003292FAA2F140
:1019E8009A49086892FAA2F2B2FA82F202F01F0249
:1019F800012101FA02F202423FF4A7AE6268002A0E
:101A08007FF4A3AEB3E74FF00008F7E68F4DF82157
:101A1800286891FAA1F16269B1FA81F120F0F80021
:101A28008A4002432A601D077FF5D6AE24E7874D1A
:101A38002B6823F480332B602B6823F480232B60DE
:101A4800EB6AA26823F00F031343EB62FEF7E8FF8B
:101A58004FF400380746012604E0FEF7E1FFC01BFB
:101A680064281DD898FAA8F32A6898FAA8F3B3FA54
:101A780083F303F01F0306FA03F31342EDD163E681
:101A88002B6843F480732B60FEF7CAFF06462B6869
:101A9800DB053FF5B8AEFEF7C3FF801B6428F6D917
:101AA800032003B0BDE8F083B8F1000F3FF412AF94
:101AB800664AD36923F08053D3610BE7634D2B6AE1
:101AC80023F001032B622B6A23F004032B62FEF739
:101AD800A7FF4FF002090746012613E099FAA9F378
:101AE8006A6A99FAA9F3B3FA83F303F01F0306FAB3
:101AF80003F31342D8D0FEF793FF41F28833C01B9B
:101B08009842CDD899FAA9F399FAA9F3002BE5D010
:101B18002A6AE6E7012595FAA5F3B3FA83F303F1F8
:101B2800845303F584139B004FF002081A60FEF7F4
:101B380077FF464E074604E0FEF772FFC01B0228F7
:101B4800AED898FAA8F3326898FAA8F3B3FA83F3F0
:101B580003F01F0305FA03F31342EDD1236839E6B6
:101B68003A4A136843F480331360CCE5374A136A62
:101B780043F00103136259E693FAA3F3B3FA83F32C
:101B880003F1845303F584139B0000221A60FEF7C7
:101B980047FF4FF000780746012605E0FEF740FFB3
:101BA800C01B02283FF67CAF98FAA8F32A6898FA77
:101BB800A8F3B3FA83F303F01F0306FA03F31342FF
:101BC800ECD16A68636A216A22F474120B431343E6
:101BD8006B604FF0807393FAA3F3B3FA83F303F1C6
:101BE800845303F584139B004FF000741E60FEF7C6
:101BF80017FF164E0746012505E0FEF711FFC01B2B
:101C080002283FF64DAF94FAA4F3326894FAA4F38D
:101C1800B3FA83F303F01F0305FA03F31342ECD07E
:101C28008AE603F18043A3F53C331A6842F4802224
:101C38001A601A6842F480321A6064E542F00402BD
:101C48001A621A6A42F001021A62EFE500100240B5
:101C5800164A536803F00C01082924D110B44FF434
:101C6800701191FAA1F103F47010B1FA81F120FA20
:101C780001F10F4CD26A605C0F2191FAA1F1B1FA1F
:101C880081F102F00F02DB0322FA01F222444CBF79
:101C9800084B094B127C5DF8044B48BFB3FBF2F3C9
:101CA80003FB00F070470348704700BF0010024074
:101CB8000C5F000800127A0000093D005F4A1368B3
:101CC80003F007038B420BD2136823F007030B437F
:101CD8001360136803F00703994201D0012070478D
:101CE80003682DE9F0419C0706D5554C8568626864
:101CF80022F0F0022A4362600C46D907064631D525
:101D08004268012A00F08780022A0CBF4FF0007356
:101D1800022393FAA3F14A49086893FAA3F3B3FAA2
:101D280083F303F01F03012101FA03F3034229D0CF
:101D3800434D6B6823F0030313436B60FEF770FE9B
:101D48007368012B074641F2883823D0022B05D14E
:101D580058E0FEF765FEC01B404559D86B6813F084
:101D68000C0FF6D1354A136803F007039C4217D2CB
:101D7800136823F0070323431360136803F0070372
:101D88009C420DD00120BDE8F081FEF749FEC01B42
:101D980040453DD86B6803F00C03042BF5D1E1E70F
:101DA80033685A0706D52649F0684A6822F4E06283
:101DB80002434A601B0707D5214A3169536823F457
:101DC800605343EAC1035360FFF742FF1C4B0146CF
:101DD800F0225B6892FAA2F2B2FA82F203F0F00300
:101DE800D3401848184AC35C002021FA03F3136053
:101DF800FEF7E6FD0020BDE8F081FEF711FEC01BEE
:101E0800404505D86B6803F00C03082BF5D1A9E70A
:101E18000320BDE8F0814FF4003393FAA3F1084999
:101E2800096893FAA3F3B3FA83F303F01F0302FAE2
:101E380003F30B427FF47CAFA4E700BF002002400D
:101E480000100240305F000804000020014B1868B1
:101E5800704700BF04000020084B4FF4E0625B6845
:101E680092FAA2F2B2FA82F203F4E063D340044990
:101E7800044ACB5C1068D840704700BF001002408D
:101E8800405F000804000020084B4FF460525B6874
:101E980092FAA2F2B2FA82F203F46053D3400449F0
:101EA800044ACB5C1068D840704700BF001002405D
:101EB800405F0008040000202DE9F0430446006854
:101EC800C50383B03CD5794BDA69D10040F1A180D4
:101ED800774D2B68DA054FF0000640F1AA80734D64
:101EE8002B6A13F4407320D0616801F44072934266
:101EF8001CD0296A4FF4803321F4407093FAA3F27E
:101F08006C4FB2FA82F23A4492004FF0010EC2F8D6
:101F180000E093FAA3F3B3FA83F33B449B00002257
:101F2800CF071A60286200F19B8061685F4A136AD4
:101F380023F440730B431362002E40F08C8020681A
:101F4800C50706D5594AA168136B23F003030B4351
:101F58001363810606D5554AE168136B23F0100315
:101F68000B431363820306D5504A216B536823F44D
:101F780080030B435360430606D54C4A2169136B13
:101F880023F020030B431363070406D5474A61690E
:101F9800136B23F040030B431363860506D5434AAE
:101FA800E169536823F400030B435360050606D523
:101FB8003E4AA169D36A23F4F8730B43D362C10480
:101FC80006D53A4A216A136B23F480730B431363D3
:101FD800420306D5354A616A136B23F480630B43C9
:101FE800136303030DD410F4801007D02F4AE16A5D
:101FF800136B23F400530B431363002003B0BDE8B5
:10200800F0832A4AA16A136B23F400630B4313631A
:10201800E9E7DA69264D42F08052DA61DB6903F0BC
:1020280080530193019B2B68DA054FF001063FF5B9
:1020380056AF2B6843F480732B60FEF7F1FC07461C
:102048002B68DB053FF54BAFFEF7EAFCC01B6428A5
:10205800F6D90320D2E7D36923F08053D3616EE722
:102068007746FEF7DDFC4FF00209804615E099FA45
:10207800A9F36A6A99FAA9F3B3FA83F303F01F0381
:1020880007FA03F313427FF450AFFEF7C9FC41F29D
:102098008833A0EB08009842DBD899FAA9F399FA9B
:1020A800A9F3002BE3D02A6AE4E700BF001002403E
:1020B80000700040008190100168022210B480F87E
:1020C8003D200A680124034622430A60002083F861
:1020D8003D405DF8044B7047704700BF704700BF34
:1020E80003680122186A02FA01F120EA010010B41B
:1020F80018621A6A0E4C1143A342196212D00D4A93
:1021080093420FD002F5806293420BD002F58062B1
:10211800934207D01A685DF8044B42F00102002090
:102128001A6070475A6C42F400425A64F2E700BFE2
:10213800002C014000400140704700BF0C292FD8F7
:10214800DFE801F0282E2E2E222E2E2E1C2E2E2ECB
:1021580007000368DA6842F01002DA60186A0122A0
:1021680002FA01F120EA010018621A6A11431962A1
:102178001A6842F001021A60002070470368DA68A2
:1021880042F00802DA60E9E70368DA6842F004021C
:10219800DA60E3E70368DA6842F00202DA60DDE752
:1021A8000368DBE70C2938D8DFE801F03137373727
:1021B8002B3737372537373707000368DA6822F0B7
:1021C8001002DA601A6A012000FA01F122EA01011C
:1021D80019621A6A1A62196A41F21112114208D177
:1021E800196A40F24442114203D11A6822F00102EE
:1021F8001A60002070470368DA6822F00802DA6083
:10220800E0E70368DA6822F00402DA60DAE70368D4
:10221800DA6822F00202DA60D4E70368D2E700BF86
:10222800F8B590F83D40E4B2022C12D090F83D4049
:10223800E4B2012C0FD00D4604460C2D5CD8DFE823
:1022480005F0105B5B5B2E5B5B5B3D5B5B5B4C0097
:102258001BB12046F8BD002AFAD0022480F83D4080
:10226800E9E72168406A254F254E876206633431C5
:10227800FFF778F82068C36843F40073C360026A04
:10228800012303FA05F122EA01020262036A1943F3
:102298000162036843F0010303600020F8BD216870
:1022A800806A164F164E876206633831FFF75AF870
:1022B8002068C36843F48063C360E0E72168C06AAC
:1022C8000E4F0F4E876206633C31FFF74BF82068CC
:1022D800C36843F40063C360D1E72168006B074F0C
:1022E800074E876206634031FFF73CF82068C368F1
:1022F80043F48053C360C2E70068C0E7852500083F
:102308003127000810B40C293DD8DFE801F0363C2D
:102318003C3C303C3C3C2A3C3C3C07000368DA68C7
:1023280022F48052DA601A6A012404FA01F122EADE
:10233800010119621A6A1A62196A41F211121142EC
:1023480008D1196A40F24442114203D11A6822F0B6
:1023580001021A60012380F83D305DF8044B00202B
:1023680070470368DA6822F40062DA60DBE7036822
:10237800DA6822F48062DA60D5E70368DA6822F462
:102388000072DA60CFE70368CDE700BF90F83C3011
:10239800012B40D002220368F0B480F83D209D68EC
:1023A8000C685D4A402C02EA05024FF0010580F8EE
:1023B8003C509A6079D018D9702C62D02DD9B4F5D8
:1023C800805F57D0B4F5005F1CD18A684D68CC682F
:1023D80099682A4342EA042221F47F410A439A6019
:1023E8009A6842F480429A600CE0102C32D038D9B6
:1023F800202C72D0302C05D19A6822F0700242F05D
:1024080037029A600023012280F83D2080F83C3092
:10241800F0BC1846704702207047502C64D0602CDE
:10242800F0D11C6A4D68CE6824F010041C629969CA
:102438001A6A21F4704122F0A00242EA051241EA28
:10244800063199611A629A6822F0700242F06702B6
:102458009A60D7E79A6822F0700242F017029A60F1
:10246800D0E7002CCED19A6822F0700242F0070221
:102478009A60C7E79A6822F4803222F007029A60CD
:10248800C0E78A684D68CC6899682A4342EA042202
:1024980021F47F410A439A609A6822F4803222F03C
:1024A800770242F077029A60ACE71D6A1E6A4C68B0
:1024B800CF6826F001061E629A6925F00A0122F00B
:1024C800F00242EA071221439A6119629A6822F0DF
:1024D800700242F047029A6094E79A6822F070020C
:1024E80042F027029A608DE71D6A1E6A4C68CF6821
:1024F80026F001061E629A6925F00A0122F0F00210
:1025080042EA071221439A6119629A6822F070021E
:1025180042F057029A6075E78800FEFF90F83C2069
:10252800012A03460AD00C2922D8DFE801F00F213E
:102538002121152121211B21212109000220704779
:102548000268106C002283F83C2070470268506BC8
:10255800002283F83C2070470268906B002283F8C1
:102568003C2070470268D06B002283F83C207047FB
:102578000020E7E7704700BF704700BF10B5446A06
:10258800626A0123904284F83D300FD0A36A9842D2
:1025980013D0E36A984213D0236B984205D02046A3
:1025A80001F0BEFF0023237710BD082323772046C0
:1025B80001F0B6FF0023237710BD02232377EEE74F
:1025C80004232377EBE700BF704700BF704700BFC5
:1025D80003681A69910710B5044602D5DA689207AC
:1025E80062D41A69500702D5DA68510749D41A69C2
:1025F800120702D5DA68100731D41A69D20602D553
:10260800DA68D00618D41A69D10702D5DA68D20771
:102618006BD41A69100602D5DA6811066DD41A69E6
:10262800520602D5DA68500657D41A69910602D5BF
:10263800DA68920649D410BD6FF010021A61DB699E
:10264800082213F4407F2277204661D1FFF794FFD8
:102658002046FFF7B9FF002223682277D3E76FF0FF
:1026680008021A61DB69042299072277204655D1AE
:10267800FFF782FF2046FFF7A7FF00222368227793
:10268800BBE76FF004021A619B69022213F4407FD2
:10269800227720463FD1FFF76FFF2046FFF794FFD0
:1026A800002223682277A2E76FF002021A619B6971
:1026B80001229B07027728D1FFF75EFF2046FFF72C
:1026C80083FF0022236822778BE76FF020022046E1
:1026D8001A61BDE8104000F0EFBB6FF040021A61CC
:1026E8002046FFF773FF23689FE76FF001021A6126
:1026F8002046FFF73FFF23688BE76FF080021A61DF
:10270800204600F0DBFB236889E701F009FFD8E7E2
:1027180001F006FF9FE701F003FFC1E701F000FFAA
:10272800ABE700BF704700BF08B5406A012380F8D7
:102738003D30FFF7F7FF08BD274A0368904230B4E1
:102748002ED0B0F1804F32D002F5A052904214D072
:1027580002F58062904210D002F5806290420CD05F
:102768004D698C680A6823F080032B4303600123BA
:10277800C462826230BC43617047CC684A6923F402
:102788004073234323F08003134303608B68C362C1
:102798000B6883620B6903630123436130BC704794
:1027A8004D68CC684A6923F070032B43E7E74D680E
:1027B800CC684A6923F070032B4323F44073234306
:1027C80023F08003134303608B68C3620B68836242
:1027D8000123436130BC7047002C0140B8B190F828
:1027E8003D3010B503F0FF0204465BB1022384F8C4
:1027F8003D302068211DFFF79FFF012384F83D30FD
:10280800002010BD80F83C2001F060FFEEE70120B9
:10281800704700BFB8B190F83D3010B503F0FF0223
:1028280004465BB1022384F83D302068211DFFF780
:1028380083FF012384F83D30002010BD80F83C2040
:10284800FFF74AFCEEE70120704700BFB8B190F8E7
:102858003D3010B503F0FF0204465BB1022384F853
:102868003D302068211DFFF767FF012384F83D30C4
:10287800002010BD80F83C20FFF730FCEEE7012077
:10288800704700BFB8B190F83D3010B503F0FF02B3
:1028980004465BB1022384F83D302068211DFFF710
:1028A8004BFF012384F83D30002010BD80F83C2008
:1028B800FFF742FCEEE70120704700BFF0B4046A5E
:1028C8008F680E68194D24F001040462036A446895
:1028D800826922F4803223F0020322F07302A842B4
:1028E80043EA070342EA060212D005F5A055A842BA
:1028F8000ED005F58065A8420AD005F58065A84286
:1029080006D0496844608261F0BC41630362704745
:10291800CD688E6923F008032B434D6924F4407475
:10292800354323F004032C43EBE700BF002C0140A0
:10293800F0B4046A8F680E68194D24F0100404621C
:10294800026A4468836923F0807322F0200223F42A
:10295800E643A84242EA071243EA062310D0114D83
:10296800A84214D0104DA84211D005F58065A842A0
:102978000DD0496844608361F0BC8163026270478E
:10298800CD6822F0800242EA051222F040024D6929
:102998008E6924F44064354344EA8504E9E700BFBE
:1029A800002C01400040014000440140F0B4046A9A
:1029B8008F680E68194D24F480740462026A4468B2
:1029C800C36923F4803322F4007223F07303A8420E
:1029D80042EA072243EA060310D0114DA84214D058
:1029E800104DA84211D005F58065A8420DD0496860
:1029F8004460C361F0BCC16302627047CD6822F4D1
:102A0800006242EA052222F480624D698E6924F44C
:102A18004054354344EA0514E9E700BF002C01405F
:102A28000040014000440140F0B4046A8F680E6819
:102A3800154D24F480540462026A4468C36923F083
:102A4800807322F4005223F4E643A84242EA073294
:102A580043EA062312D005F5A055A8420ED005F585
:102A68008065A8420AD005F58065A84206D0496865
:102A78004460C361F0BC0164026270474D6924F48C
:102A8800804444EA8514F2E7002C014070B4046ADB
:102A9800114E24F001040462B0428469056A16D01C
:102AA800B0F1804F13D006F5A056B0420FD044F0D5
:102AB80001021B01DBB222F0F00225F00A0501F049
:102AC8000A010D4313438361056270BC704724F00B
:102AD80003042243EDE700BF002C0140F8B590F84D
:102AE8003C30012B38D00D4602230121044680F8E2
:102AF8003C1080F83D30002A30D0042A03683DD0CD
:102B0800082A1E6A2A685DD026F480566F68E9682C
:102B1800AD681E62D8691E6A20F44070120309036A
:102B280040EA072002F4204289B220F4704026F4DB
:102B3800204632430143D9611A62DA6922F44062BD
:102B4800DA61DA6942EA0525DD610123002084F8AB
:102B58003D3084F83C00F8BD0220F8BD95E8060039
:102B6800EB680068FFF792FF2368A868996921F06D
:102B78000C0199619A6902439A61E6E71E6A2A681C
:102B88006F68E968AD6826F010061E6298691E6ACB
:102B980020F440701201090340EA072002F0A00265
:102BA80089B220F4704026F0A006324301439961AF
:102BB8001A629A6922F440629A619A6942EA052582
:102BC8009D61C2E726F480766868E968AD681E6290
:102BD800DF691E6A27F0030712020901384302F46D
:102BE8002062C9B220F0F00026F420663243014387
:102BF800D9611A62DA6922F00C02DA61DA692A43C9
:102C0800DA61A2E7F0B4046A8F680E68154D24F4FF
:102C180080340462026A4468436D23F4803322F4EA
:102C2800003223F07003A84242EA074243EA06034F
:102C380012D005F5A055A8420ED005F58065A8422A
:102C48000AD005F58065A84206D049684460436506
:102C5800F0BC8165026270474D6924F4803444EA0F
:102C68000524F2E7002C0140F0B4046A8F680E686E
:102C7800154D24F480140462026A4468436D23F0FD
:102C8800807322F4001223F4E043A84242EA075278
:102C980043EA062312D005F5A055A8420ED005F543
:102CA8008065A8420AD005F58065A84206D0496823
:102CB80044604365F0BCC165026270474D6924F405
:102CC800802444EA8524F2E7002C014090F83C3047
:102CD800012B20D010B504460223012084F83C00C3
:102CE80084F83D30142A0FD8DFE802F01B0E0E0ED0
:102CF8001F0E0E0E230E0E0E0B0E0E0E270E0E0EB0
:102D080017002068FFF790FE0123002084F83D306B
:102D180084F83C0010BD022070472068FFF7A4FF2C
:102D2800F2E72068FFF7CAFDEEE72068FFF700FE2C
:102D3800EAE72068FFF73AFEE6E72068FFF762FF58
:102D4800E2E700BF38B590F83C30012B2FD00D4694
:102D580002230121044680F83C1080F83D30142AF3
:102D68001ED8DFE802F0391D1D1D4B1D1D1D5E1DFF
:102D78001D1D0B1D1D1D701D1D1D260029460068EB
:102D8800FFF752FE23682869D96941F40061D961C7
:102D9800D96921F48061D961DA6942EA0022DA61ED
:102DA8000123002084F83D3084F83C0038BD02201F
:102DB80038BD29460068FFF757FF23682869596D11
:102DC80041F400615965596D21F4806159655A6D66
:102DD80042EA00225A65E3E729460068FFF76EFDDC
:102DE80023682869996941F008019961996921F076
:102DF800040199619A6902439A61D1E729460068FA
:102E0800FFF796FD23682869996941F40061996183
:102E1800996921F4806199619A6942EA00229A616C
:102E2800BEE729460068FFF7C1FD23682869D9690C
:102E380041F00801D961D96921F00401D961DA6941
:102E48000243DA61ACE729460068FFF7DBFE236836
:102E58002869596D41F008015965596D21F004013F
:102E680059655A6D02435A659AE700BF90F83C309D
:102E7800012B16D0026870B40E4D53689468AA42AC
:102E880012D00E688D6823F0700324F0800133435C
:102E9800002429435360916080F83C40204670BC70
:102EA80070470223184670474D6823F470032B437C
:102EB800E7E700BF002C0140704700BF704700BF24
:102EC800F8B590F86940202C01D00220F8BD61B314
:102ED8005AB390F86840012CF7D004460126006EDA
:102EE80084F86860134600252268A4F85230212629
:102EF800E566DFF844E084F869600D4F0D4EA4F8EC
:102F08005030E16428324563C0F828E0C7620663A0
:102F1800FEF728FA236840221A629A6884F86850F3
:102F280042F0800228469A60F8BD0120F8BD00BF33
:102F3800792F00088D2F0008492F0008704700BF1F
:102F480008B50368406A1B6813F020030BD10268B8
:102F5800A0F85230936823F080039360136843F01D
:102F68004003136008BDFFF7E9FF08BD704700BFC5
:102F780008B5406AFFF7FAFF08BD00BF704700BFF9
:102F8800704700BF406A08B590F86930212B1DD002
:102F980090F86A30222B06D0C36E43F01003C36644
:102FA800FFF7EEFF08BD03689A685206F4D50022C1
:102FB800A0F85A201A6822F490721A609A682021A0
:102FC80022F001029A6080F86A10E5E703689A68BF
:102FD8001106DDD50022A0F852201A68202122F01F
:102FE800C0021A6080F86910D2E700BF08B5436ACA
:102FF8000022A3F85A201846A3F85220FFF7C0FF72
:1030080008BD00BFF8B50468076983684669C169E7
:10301800624A05463B4320682F6A334302400B430C
:10302800134323606268EE68AB695D4822F440523E
:1030380032436260A2683B4322F430621343844205
:10304800A3601BD0574B9C420AD003F580639C4277
:1030580006D0B1F5004F58D100230120E360F8BD38
:10306800B1F5004F53D0FEF7F7FE6B6800EB530045
:10307800B0FBF3F080B2E0600020F8BD4A4B4B4A49
:103088001B6B03F00303B1F5004FD35C51D0082B41
:103098003BD801A252F823F06F3000080D31000828
:1030A800F330000813310008DB3000081331000842
:1030B8001331000813310008C53000086A68384920
:1030C800530803F50043B3FBF2F39BB2CB60002037
:1030D800F8BDFEF7BDFD6B68314A00EB5300B0FB4D
:1030E800F3F080B2D0600020F8BD6A682C4953081C
:1030F80003F5F40303F59053B3FBF2F39BB2CB60F3
:103108000020F8BDFEF7C0FEE5E70120F8BDFEF798
:10311800A3FE6A682C68530803EB4000B0FBF2F08A
:10312800C0F3420320F00F0003439BB20020E3608A
:10313800F8BD082B90D801A252F823F017310008E7
:103148006931000891310008613000088B310008AE
:103158006130000861300008613000086F310008F4
:10316800FEF792FED5E76B685A0802F58032B2FB8B
:10317800F3F2C2F3420322F00F0213439BB2002082
:103188006CE7FEF765FDC4E76A68530803F5740346
:1031980003F51053B3FBF2F2EBE700BFF369FFEF5F
:1031A8000038014000440040001002402C5F000835
:1031B800436ADA0710B406D50168846A4A6822F4BB
:1031C800003222434A609C0706D50168C46A4A68EF
:1031D80022F4803222434A60590706D50168046BFD
:1031E8004A6822F4802222434A601A0706D50168F9
:1031F800446B4A6822F4004222434A60DC0606D542
:103208000168846B8A6822F4805222438A60990696
:1032180006D50168C46B8A6822F4005222438A608A
:103228005A0609D50168046C4A6822F480122243C0
:10323800B4F5801F4A600BD01B0606D50268816C66
:10324800536823F400230B4353605DF8044B704725
:103258004A68446C22F4C00222434A60ECE700BF8B
:103268002DE9F843089D80460F4616469946D8F83A
:10327800004001E06B1C0AD1E06937EA00030CBF8B
:1032880001200020B042F5D00020BDE8F8833DB110
:10329800FDF7C6FBA0EB09008542E8D2D8F800404C
:1032A800236823F4D0732360A368202223F001034A
:1032B8000021A360032088F8692088F8681088F83E
:1032C8006A20BDE8F88300BF70B50446002582B0C7
:1032D800C566FDF7A5FB23681A68120706460CD4D5
:1032E8001B685B0717D42023002084F8693084F812
:1032F800680084F86A3002B070BD6FF07E430093B6
:103308002A4603464FF400112046FFF7A9FF80B173
:10331800032002B070BD6FF07E4200923346002257
:103328004FF480012046FFF79BFF0028DBD00320E5
:10333800EFE72368D4E700BF002843D090F869304E
:1033480070B5154604460E4603F0FF0243B32268E3
:10335800242384F86930136823F00103136020469E
:10336800FFF750FE012820D0636A03BB23685A6820
:1033780022F490425A609A68B5F5006F22F02A024A
:103388009A6018D0196821F40061294319601A68F5
:1033980042F0010220461A60BDE87040FFF794BF72
:1033A80080F8682001F01CFAD1E7012070BD2046A2
:1033B800FFF7FEFEDAE7596821F07F4141EA066629
:1033C8005E60DFE70120704790F86930212B01D05B
:1033D80002207047B0F852309BB28BB18368B3F5C6
:1033E800805F18D0C36C0268591CC1641B781385B0
:1033F800B0F85230013B9BB2A0F852300020704721
:103408000268116821F080011160116841F04001E3
:103418001846116070470369002BE3D1C36C01683B
:1034280033F8022BC2F308020A85C364E0E700BF41
:1034380038B590F86A30222B06D00268936943F0B9
:1034480008039361022038BD036882689B8CB0F83A
:103458005C10B2F5805F9BB21DD0426D0B40511CD1
:1034680041651370B0F85A40013CA4B2A0F85A4024
:103478000CB1002038BD0368196821F490711960F7
:103488009968202521F00101996080F86A50FFF7BA
:1034980075FD204638BD0269002ADED1426D0B4019
:1034A80022F8023B4265DDE70368DA69196870B5FE
:1034B8001507044610D196065BD49868D50201D545
:1034C80040027FD4160602D50D0600F18C80500606
:1034D80001D54A0664D470BD986810F001054ED035
:1034E800D60707D5C80505D501201862E06E40F05B
:1034F8000100E066960748D53DB102201862E06EEB
:1035080040F00400E066500743D4100703D58E0648
:1035180051D4002D4FD1E06E0028DCD0900601D5A3
:10352800890665D4E26E120703D49D6815F040053C
:1035380063D01A6822F490721A609A68202122F0E7
:1035480001029A6084F86A109A68560647D59A6804
:10355800606E22F040029A60002840D0294B4363F5
:10356800FDF742FF0028B6D0606EBDE87040436B9F
:1035780018478D06A1D5BDE87040FFF759BF11F473
:10358800907F9BD0D607B5D5ACE75607BDD5002DA3
:10359800BBD004201862E06E40F00200E066B4E799
:1035A8001A68202122F040021A60204684F8691027
:1035B800FFF7C4FC70BD08201862E06E40F00800F8
:1035C800E066A8E720224FF480111962204684F8AB
:1035D800692084F86A20BDE8704000F015B82046DC
:1035E800FFF7CEFC70BD2046BDE87040FFF7ECBE8B
:1035F8002046FFF71DFF236894E72046FFF7C0FC2D
:10360800E56670BDF52F0008704700BFF0B40B4A9F
:103618000B4BD16CC2F8BC304FF090430127094CDA
:10362800094D1D6004263944002510209F61D1648E
:103638009E6125619862F0BC704700BFCC030020F2
:1036480055360008B804002095F52A6870B44FF084
:103658009043084E084A09481A60094C012204257B
:1036680010219A6132619D62C0F8BC40996170BCBA
:10367800704700BFB804002055F92A68CC03002021
:103688008D360008F0B44FF09043084D084A0949B8
:103698001A6001270424022607489F6210222E611F
:1036A8009C61C1F8BC00F0BC9A617047B804002066
:1036B80055F92A68CC030020C5360008F0B44FF04D
:1036C8009043084D084A09491A6001270424032633
:1036D80007489F6110222E619C61C1F8BC00F0BCB4
:1036E8009A627047B804002059F52A68CC03002074
:1036F800FD36000870B44FF09043084D084A094859
:103708001A60094C0126042210219E612A619A62DE
:10371800C0F8BC40996170BC704700BFB804002075
:1037280059F52A68CC03002035370008F0B44FF06B
:103738009043084D084A09491A60012704240526C0
:1037480007489F6210222E619C61C1F8BC00F0BC42
:103758009A617047B804002095F52A68CC030020C8
:1037680015360008F0B40B4A0B4BD16CC2F8BC30CC
:103778004FF090430127094C094D1D600426394438
:10378800052510209F62D1649E6125619861F0BC77
:10379800704700BFCC030020AD370008B8040020F4
:1037A80095F52A6870B44FF09043084D084A0948C7
:1037B8001A60094C0126042210219E612A619A622E
:1037C800C0F8BC40996170BC704700BFB8040020C5
:1037D80059F52A68CC030020E5370008F0B44FF00B
:1037E8009043084D084A09491A6001270424032612
:1037F80007489F6110222E619C61C1F8BC00F0BC93
:103808009A627047B804002059F52A68CC03002052
:103818001D380008F0B44FF09043084D084A094994
:103828001A6001270424022607489F6210222E618D
:103838009C61C1F8BC00F0BC9A617047B8040020D4
:1038480055F92A68CC0300205538000870B44FF0A9
:103858009043084E084A09481A60094C0122042579
:1038680010219A6132619D62C0F8BC40996170BCB8
:10387800704700BFB804002055F92A68CC0300201F
:103888008D380008F0B44FF09043084D084A0949B4
:103898001A6001270424002607489F6110222E6120
:1038A8009C61C1F8BC00F0BC9A627047B804002063
:1038B80095F52A68CC0300206D370008F8B500207C
:1038C80001F0ECFC4FF0904306490748002201271D
:1038D800042510240A269F620E619D62CA619C62BB
:1038E8004260F8BDCC030020B8040020F8B50020E1
:1038F80001F0D4FC4FF09043064907480022012705
:10390800042510240A269F610E619D61CA619C618D
:103918004260F8BDCC030020B804002030B59DB04B
:1039280002250024012110224FF4601305A80991F3
:103938000A920E9305950C950D94FDF7BBFE29464A
:103948000F224FF480636846009203930195029416
:103958000494FEF7B3F90C490F914FF480724FF4B9
:1039680088730FA8179215931894FEF7A5FAFEF717
:103978006DFA064BA3FB00308009FDF795FC042087
:10398800FDF7ACFC1DB030BD80100400D34D6210B3
:10399800F0B51B4C87B0002501264FF0A042042348
:1039A80003272046226063616560A5606562256320
:1039B800E560A561A5632661E661E6626663276244
:1039C800FDF7EEF869460A22052320460092029385
:1039D8000196039504950595FDF77CFA0B22694637
:1039E800022320468DE80C00FDF774FA0F23694680
:1039F80020468DE88800FDF76DFA07B0F0BD00BFDE
:103A0800E0010020F0B5234D234A686093B00024FC
:103A18004FF6FF7328462A60EB60AC602C616C613E
:103A2800AC61FEF7DBFE12A94FF4805341F83C3D30
:103A38002846FEF7ABFC2846FEF724FF69462846D1
:103A480001270626009401940294FFF70FFA0A232F
:103A5800224607A928460793099408970A96FFF76C
:103A68003DF807A9284604220794089709940A965E
:103A7800FFF734F842F21073284608220BA90B947A
:103A88000D940E940F94109411940C93FFF71EF953
:103A980013B0F0BD2C030020002C014030B51D4CA4
:103AA8008FB0002501224FF080414FF47A732046F1
:103AB80084E80600E360A5602561A561FEF78EFE37
:103AC8000EA94FF4805341F82C3D2046FEF75EFCCA
:103AD8002046FEF7BBFE6946204600950295FFF793
:103AE800C5F960232A4607A9204607930895099532
:103AF8000B95FFF727F907A920460422FFF722F9BB
:103B080007A90C222046FFF71DF9204600F050FEB9
:103B18000FB030BD8C03002030B51D4C1D4B236009
:103B28008FB0002520224FF6E85320466260E360FC
:103B3800A56025616561A561FEF750FE0EA94FF4E9
:103B4800805341F82C3D2046FEF720FC2046FEF726
:103B580061FE6946204600950295FFF787F92A46D7
:103B680007A941F2883320460893079509950A95D5
:103B78000B950C950D95FFF7A9F842F2107307A95C
:103B8800204604220893FFF7A1F80FB030BD00BF0C
:103B98005C01002000400140354B2DE9F0415A6995
:103BA800344E42F480025A615A6988B002F48002A5
:103BB8000092009A5A6942F400325A615A6902F432
:103BC80000320192019A5A6942F480225A615B6973
:103BD80003F480230322012502933046072303A917
:103BE8004FF4C0671224DDF808E0069207930397A4
:103BF80004944FF4004700240595FDF765FC03A9DC
:103C08004FF090404FF020080495039705940694D0
:103C1800FDF75AFC03A9304604940595CDF80C80AD
:103C2800FDF752FC304603A9CDF80C8004940595A5
:103C3800FDF74AFC03A93F234FF0904003930495F6
:103C480005940694FDF740FC4FF4605303A94FF028
:103C58009040039305950494FDF736FC22463946B7
:103C68004FF09040FDF720FD08B0BDE8F08100BF9F
:103C78000010024000040048F0B40E4B0E4A1A60CF
:103C88000C2500244FF4E13108274FF480565D617C
:103C98004FF40045224659605F6221469E639C604E
:103CA800DC601C619C611C62DD615D631846F0BCD0
:103CB800FFF742BB780200200038014030B583B0DE
:103CC800FFF76AFF1F4B204C5A69204D42F0010252
:103CD8005A615B6903F001030193019BFFF758FEEA
:103CE800FFF7DCFEFFF718FF0020FFF78BFE0C2024
:103CF800FDF7C0FA2046FEF7DFF920460021FEF75F
:103D0800EFF920460421FEF7EBF90C212046FEF7D7
:103D1800E7F90F48FEF7D0F90E20FDF7ABFAFFF7E9
:103D2800ABFF2520FDF7A6FA28460A21FDF78AF8F9
:103D380028460F21FDF786F828460B21FDF782F863
:103D480003B030BD001002408C030020E0010020C9
:103D58005C010020FEE700BFF8B5244DFCF758FED3
:103D6800234BE9681A685C689868013140F6B837EF
:103D7800B9424FF0000602F1010204F1010400F11A
:103D8800010092BFE960EE60AE60642A5C609860F2
:103D98001A605E6708D9D96C4FF4167202FB01F2FB
:103DA80000211A651960D96493ED106ADFED116A74
:103DB80093ED117A104AD3F8B0001168C3F8B40033
:103DC800C6EE267A0020C3F8B00077EE877AC3EDF6
:103DD800117A49B153680949013309685360022BC4
:103DE8008B62C4BF01235360F8BD00BF9404002058
:103DF800CC0300200000C842240000208C030020CF
:103E080038B50D4A0D4C906823690D4A0A2103EB19
:103E18008000002541F288331560A1626361236246
:103E2800E56101F03BFAD4F8BC309847054AA5672C
:103E38000123E366536038BD94040020CC030020BE
:103E480024000020B804002038B5284B284C1B68F3
:103E5800E268934210D963B32649274A8968926871
:103E680091420DD8E268323293423AD9A3F1320036
:103E7800BDE8384001F012BA256B15B1642B29D87A
:103E880038BD1C4AA16C506888421BD81A489168F2
:103E9800C2689142F4D3A06FE2681844824203D802
:103EA800E2689342ECD2E06801F0F8F90023A367D6
:103EB80038BD226B002AE3D10E4AA06C51688842B3
:103EC800E4D2DDE7142BDBD9A3F1140001F0E6F905
:103ED800A56738BDA3F1320001F0E0F90023A3671C
:103EE80038BDE068BDE8384001F0D8B9B804002012
:103EF800CC0300200C01002024000020124B1348A2
:103F08005A6FD969013211295A6712D81A6A1049A9
:103F1800B1FBF2F10A22C3F880100260996F914256
:103F280005D2D3F8800001449142996700D99A6775
:103F380070471A6A0749B1FBF2F132220A31C3F815
:103F480080100260EAE700BFCC03002000000020D8
:103F580080A90300C0D4010010B51F4CE268236992
:103F68009A421DD91D4AD269002A30D1E26893428B
:103F780009D2636F0522226163B1E36E03B3BDE822
:103F88001040FFF761BFE36E03B3636F0522226140
:103F9800002BF4D1FFF7B2FFE36E002BEFD10FE057
:103FA800FFF7A4FCE36E0BB1002363600B480C49D8
:103FB80000230A22C361E36623678B60226110BD78
:103FC800FFF71EFFBDE81040FFF73EBF10BD002001
:103FD800BDE8104001F062B9CC030020D8040020ED
:103FE800940400202DE9F041654D664C6B6894ED12
:103FF800106AA26B9FED647A2E68AF68A06840F2E1
:104008004C4101FB03F307EE903AF8EE677AF3EEC2
:104018000F6AE6EE267AC2EB42123244C7EB071764
:1040280067EE877A5209BF08B0F5FA7FC4ED107AB7
:10403800A263E76300F290806268544E42F2107304
:104048009A4202D97368002B58D03068C82831D9F1
:10405800E369112B2AD96A68A36C9A4230D8A36BFA
:10406800EA2B36D9B3F5A87F02D3494B00229A60D0
:10407800226A46F2A813B3FBF0F0824232D2454DD1
:104088006B6803B96A602B680133B3F5966F2B60D0
:104098002DD9E369B3F57A7F2CD36B68B2EB430F64
:1040A8003BD900236B602B60BDE8F081C82001F08C
:1040B800F5F830686A68A36C9A42D0D93C28CED902
:1040C8000A3801F0EBF80023A367A36B3068EA2BEA
:1040D800C8D82F4B01229A60DA6001F0DFF8306807
:1040E800A36BBFE72B4B00221A60BDE8F081142BAD
:1040F80002D9E369642BD0D8BDE8F081244BDB6892
:10410800002B35D164234CF250324FF4C871012092
:1041180001F04CF90023636097E7AB680024013392
:10412800AB606C602C60EC60FFF76AFEAB680A2B32
:10413800E2D9174B20460124DC6101F0AFF8FA20E0
:10414800FCF774FC204640F2DC53134A4FF4167116
:10415800BDE8F04101F02AB90027E7600B4EFFF7F0
:10416800ADFB01F0F9FC01F005FE6760A7606CE7A4
:10417800C8234CF25032032001F018F9CAE700BFF7
:104188000C010020CC0300200000003DB8040020F2
:10419800D80400209404002080380100454A30B536
:1041A800D4690B2C34D80123116A9361136B13B1B2
:1041B8009369DB009361404D404B2868A3FB00E303
:1041C8009B090C33C72CEB6038D8142393626328FF
:1041D80025D805239364B1F57A5F27D842F6E063C2
:1041E80099423ED8B1F5FA5F5CD8B1F57A6F51D8EB
:1041F800242C0CD9324A3349536809680133012BFE
:1042080053608B62C4BF002353600123136030BD29
:10421800116AB1F57A7F1ED204239361C6E7F928A3
:1042280012D80623B1F57A5F9364D7D9254A244B6F
:1042380011680520002288621A6030BDB1F5FA6F56
:1042480017D216239362C2E7B0F5FA7F34BF0A2368
:1042580014239364BFE7B1F5FA6F14D20323936173
:10426800A4E7184A164B11680420002288621A60D5
:1042780030BDB1F57A6FA8D3B1F5FA5F34BF122318
:1042880010239362A3E7B1F5FA5F34BF0223012339
:1042980093618BE70B4A0A4B11680220002288625F
:1042A8001A6030BD074A064B116803200022886255
:1042B8001A6030BDCC030020B804002089888888A3
:1042C800240000208C0300200D490E4B30B4DA681E
:1042D8008C694D69631EC2F1200205FB0300B0FB27
:1042E800F4F000FB02F2A0F10A0303EB52134EF6BE
:1042F8006022934228BF134648610B6230BC704766
:10430800CC030020B80400202DE9F047344CDFF836
:10431800E0906369E26FB3FBF2F30133B3F57A7FA0
:1043280088BF4FF47A7363632E4ED9F810302E4D40
:1043380036F823102D4FDFF8BC804FF09040FDF782
:10434800ADF90023E36210E0D9F8103036F82310F5
:10435800FDF7A4F9D9F8103058F82330B3FA83F3ED
:104368005B09834204BF0123E362626A296802EBA6
:104378008203D1F824E0A7FB03C3BEEB930F4FF0F1
:104388009040E1D3E36A3BBB236B013323634B6A61
:104398009A42FCD80027DFF85CA04EF6602810E0AF
:1043A800D9F8103036F82310FDF778F9D9F810202D
:1043B8002B685AF8222090425A6A08BF01374245B2
:1043C80005D8636BBB424FF09040E9D82B68586A18
:1043D800BDE8F047FFF778BF00232363D7E700BFA6
:1043E800CC030020C40000205C010020ABAAAAAACC
:1043F800B8040020F400002038B50F4D0F4C296890
:10440800226A4B6A9342FCD3D4F8BC309847E369DC
:104418002A68B3F57A7F4FF0000138BF0133516243
:1044280038BFE3616169A36A054A03FB01F3A2FB94
:1044380003231B09636238BD5C010020CC03002004
:104448008988888808B5294E294C2A4DFCF7CEFA68
:10445800FFF764FAFFF732FC01F062F901224FF42A
:1044680000414FF09040FDF71FF901F075FB314610
:1044780003222148FCF786FC00F0B8FE01F07AFC24
:10448800B3681E481E4903EB830203EB4202C3EBE9
:10449800C303A0FB0262A0FB03030026D208DB08CB
:1044A8004FF4FA608A60CB60A863A660E660FFF705
:1044B80099FDFFF751FD636953B9EB6E73B901F0CC
:1044C8006DF9FFF78FFDFFF747FD6369002BF4D007
:1044D80000F004FFEB6E6661002BF0D0FFF714FFCD
:1044E800FFF75CFEFFF788FFE1E700BF0C01002043
:1044F800D8040020CC030020E0010020CDCCCCCC97
:1045080024000020054B40F21A4040F29E714FF4FF
:104518006172D86019615A61704700BF6C0300204E
:10452800244B9B6A13B902685362704770B54FF405
:10453800807104464FF09040FDF7B0F80646002819
:104548002ED11D4D01462046FDF7E8FF6B68226815
:104558002860C31A5662A3F54872B2F5AF6FAB6014
:104568001DD8EA6868699B1A4FF47A71AB6001FB41
:1045780003F393FBF0F3002B19DBB3F57A7FDABF73
:10458800AB611946A961EB690C4AB3F57A7FD16032
:10459800B8BF01334FF000019160B8BFEB6170BD47
:1045A80020460021FDF7BAFF034B586070BDAE618D
:1045B8003146E8E7002C01406C030020CC030020C2
:1045C8001D4B00B59A6942F001029A619B6983B05C
:1045D80003F0010301930320019BFCF703FE002273
:1045E80011466FF00B00FCF70FFE002211466FF02A
:1045F8000A00FCF709FE002211466FF00900FCF7DB
:1046080003FE002211466FF00400FCF7FDFD0022B6
:1046180011466FF00300FCF7F7FD002211466FF01A
:104628000100FCF7F1FD002211464FF0FF30FCF7C6
:10463800EBFD03B05DF804FB001002400368B3F122
:10464800A04F00D0704703F1704303F50433F0B571
:104658005A691B4D42F080525A615B6987B003F07A
:10466800805300260446009301A9C02303274FF076
:104678009040009A019302970396FCF725FF01A941
:10468800012310480297019303968027FCF71CFF2B
:10469800DFF834E06E604FF400714FF400622023BD
:1046A8002846AE60EE61C5F800E0EF6029616A61F6
:1046B800AB61FCF71FFEE5636C6207B0F0BD00BF9D
:1046C800E80200200004004808000240F0B5334A20
:1046D8000368934289B01FD0B3F1804F10D0304A9D
:1046E800934201D009B0F0BD2E4B9A6942F4803252
:1046F8009A619B6903F480330393039B09B0F0BD6F
:1047080003F50433DA6942F00102DA61DB6903F088
:1047180001030293029BE5E7224B234D9A6942F479
:1047280000629A619B69044603F400634FF4807049
:104738000193032206230227012603A903904FF0C1
:1047480090400497059606920793DDF804E0FCF77D
:10475800BBFE164B2B6080234FF400774FF40066A6
:1047680020214FF40052EB60284600232F616E6130
:10477800A961EA616B60AB60FCF7BCFD50B900222F
:10478800656211461B206C62FCF73EFD1B20FCF79E
:1047980071FDA7E7FFF7DEFAF1E700BF002C014043
:1047A8000040014000100240180100201C00024097
:1047B8000368B3F1804F00D0704730B587B000234D
:1047C80001222A25022401A94FF090400195029464
:1047D800039304930592FCF777FE07B030BD00BF42
:1047E8002C4B02689A4200D0704703F55843F0B545
:1047F8009A69294E42F480429A619B6987B003F412
:10480800804304464FF4C06000930322072301A9A4
:10481800019012274FF09040012504920593DDF88E
:1048280000E002970395FCF74FFE1C4B3360102104
:104838000023802230467160F260B3603361736197
:10484800B361F361FCF756FDE8B9154D15492666C5
:1048580000238022284674622960EA606B60AB609E
:104868002B616B61AB61EB61FCF744FD70B9002211
:104878001146656625206C62FCF7C6FC2520FCF70E
:10488800F9FC07B0F0BDFFF765FADEE7FFF762FA5B
:10489800EDE700BF003801409C01002044000240C1
:1048A8003402002058000240704700BFFEE700BFF6
:1048B800FEE700BFFEE700BFFEE700BF704700BF8E
:1048C800704700BF704700BF0148FCF7B1BD00BF8B
:1048D800E802002038B5104A104CD368D4F8B0105C
:1048E8000F4823F4007301250529D360056107D813
:1048F800D4F8C0309847D4F8B0302B44C4F8B0305E
:104908000849054A086CC96B022383404B60D36889
:1049180043F40073D36038BD002C0140CC03002061
:10492800D8040020180100200148FCF781BD00BF11
:104938009C01002010B51B4C23681A69910702D509
:10494800DA68920716D41A69110712D5DA681207BD
:104958000FD56FF008021A61DB69124804229B0721
:10496800227719D1FDF708FE0E48FDF72DFE00232A
:10497800237710BD6FF002021A619B6901229B0721
:10498800227720460BD1FDF7F7FD2046FDF71CFEE8
:10499800002223682277D6E7FFF7C2FDE7E7FFF793
:1049A800BFFDF5E72C0300200148FDF711BE00BF4D
:1049B8005C0100200148FEF777BD00BF78020020A7
:1049C8004F4A504BD16FD86D2DE9F04F1468091B31
:1049D800814295B04BD99C6DA14248D2516810686C
:1049E800091A0491D1689068091A059151691069EA
:1049F800091A0691D1699069091A0791516A106AD2
:104A0800091A0891D16A906A091A0991516B106BB9
:104A1800091A0A91D16B906B091A0B91516C106CA1
:104A2800091A0C91D16C906C091A0D91516D106D89
:104A3800091A0E91D16D906D091A0F91516E106E71
:104A4800091A1091D16E906E091A1191516F106F59
:104A5800091A1291D16F926F8A1A13929A6E04985A
:104A68005100884240F29E8015B0BDE8F08F116871
:104A78005468091B884247D29C6DA14244D2916870
:104A88005068091A04911169D068091A0591916949
:104A98005069091A0691116AD069091A0791916A31
:104AA800506A091A0891116BD06A091A0991916B19
:104AB800506B091A0A91116CD06B091A0B91916C01
:104AC800506C091A0C91116DD06C091A0D91916DE9
:104AD800506D091A0E91116ED06D091A0F91916ED1
:104AE800506E091A1091116FD06E091A1191916FB9
:104AF800506F091A12911168D26F8A1A13924BE0FB
:104B080040000020CC03002051689468091B8842AB
:104B1800AAD2986D8142A7D2D1689068091A0491E7
:104B280051691069091A0591D1699069091A0691A4
:104B3800516A106A091A0791D16A906A091A08918C
:104B4800516B106B091A0991D16B906B091A0A9174
:104B5800516C106C091A0B91D16C906C091A0C915C
:104B6800516D106D091A0D91D16D906D091A0E9144
:104B7800516E106E091A0F91D16E906E091A10912C
:104B8800516F106F091A1191D16F906F091A129114
:104B9800516812688A1A13929A6E049851008842D2
:104BA8003FF662AF049C50088442FFF45DAF059C59
:104BB800A142FFF459AF059CA0423FF655AF069CB1
:104BC800A142FFF451AF069CA0423FF64DAF079CAF
:104BD800A142FFF449AF079CA0423FF645AF089CAD
:104BE800A142FFF441AF089CA0423FF63DAF099CAB
:104BF800A142FFF439AF099CA0423FF635AF0A9CA9
:104C0800A142FFF431AF0A9CA0423FF62DAF0B9CA6
:104C1800A142FFF429AF0B9CA0423FF625AF0C9CA4
:104C2800A142FFF421AF0C9CA0423FF61DAF0D9CA2
:104C3800A142FFF419AF0D9CA0423FF615AF0E9CA0
:104C4800A142FFF411AF0E9CA0423FF60DAF0F9C9E
:104C5800A142FFF409AF0F9CA0423FF605AF109C9C
:104C6800A142FFF401AF109CA0423FF6FDAE119C9B
:104C7800A142FFF4F9AE119CA0423FF6F5AE129C9A
:104C8800A142FFF4F1AE129CA0423FF6EDAE139C98
:104C9800A142FFF4E9AE139988423FF6E5AE0499C4
:104CA8000598B0FBF2F08003069CB1FBF2F140EAF4
:104CB800C1300799DDF824B0DDF820A0DDF8289090
:104CC800DDF82C80DDF830C0DDF834E00E9F0F9E53
:104CD800109D0195119D0295129D0395139DB5FB9D
:104CE800F2F52843B4FBF2F440EA4430B1FBF2F1A8
:104CF80040EA0131BBFBF2FB41EA8B21BAFBF2FA35
:104D080041EACA21B9FBF2F941EA4921B8FBF2F8B4
:104D180041EA0821BCFBF2FC41EACC11BEFBF2FEE1
:104D280041EA8E11B7FBF2F741EA4711B6FBF2F6FA
:104D380041EA0611019DB5FBF2F041EAC001029D6E
:104D4800B5FBF2F041EA8001039DB5FBF2F241EABE
:104D580042025109481E2E280FD9910908481739CF
:104D6800B1F57A7F446988BF0021D96014B9C2F3CC
:104D78000012426100229A6076E683F8C51073E655
:104D8800D80400202DE9F04FDD4CDE4AE3692068A5
:104D9800516E1B1A8B4283B0C0F08A81116E8B4210
:104DA80000F28681D4F804E0D4F800B0D4F80C807E
:104DB800D4F808A0D4F814C0D4F81090E36900938C
:104DC800A3690193A76823682669A168A069256972
:104DD800CD4C711AFB1A642606FB03F3401B06FB35
:104DE80001F15D1806FB00F00544A4FB05546408B6
:104DF800A4F5FA75AB42C0F05B8104F5FA74A342DE
:104E080000F25681A942C0F05381A14200F25081BC
:104E1800A842C0F04D81A04200F24A819808990941
:104E280050380539AEEB0B0E441A06FB0EF65B093B
:104E3800A642A3F10A030844C0F244818642C0F2A4
:104E4800438119188E42C0F2528119448E42C0F231
:104E5800538119448E42C0F2648119448E42C0F2D3
:104E6800698119448E42C0F2698119448E42C0F2A8
:104E7800738119448E42C0F2738119448E42C0F284
:104E8800808119448E42C0F2808119448E42C0F25A
:104E98007A8119448E42C0F2808119448E42C0F250
:104EA8007A8119448E42C0F2748119448E42C0F24C
:104EB8006E8119448E42ACBF14260F26A8EB0A084F
:104EC800642505FB08F8444500F3FA80404500F3E3
:104ED800028119188845C0F2058119448845C0F235
:104EE800178119448845C0F21A8119448845C0F2CF
:104EF8001F8119448845C0F2268119448845C0F2AB
:104F0800278119448845C0F2308119448845C0F288
:104F1800498119448845C0F2498119448845C0F23D
:104F2800438119448845C0F2498119448845C0F233
:104F3800438119448845C0F23D8119448845C0F22F
:104F4800378119448845ACBF14250F25ACEB090CF3
:104F5800642707FB0CFC644500F3AF80604500F351
:104F6800B78019188C45C0F2BF8019448C45C0F22F
:104F7800C08019448C45C0F2CD8019448C45C0F2DC
:104F8800D28019448C45C0F2DB8019448C45C0F2AC
:104F9800DC8019448C45C0F2E58019448C45C0F288
:104FA800FE8019448C45C0F2128119448C45C0F228
:104FB8000B8119448C45C0F2168119448C45C0F206
:104FC8000F8119448C45C0F2088119448C45C0F200
:104FD800018119448C45ACBF4FF0140C4FF00F0CF5
:104FE8009DE882004FF0640EC91B0EFB01F18C4254
:104FF80061DC88426ADC1844814271DB18448142D2
:105008007CDB18448142C0F2888018448142C0F297
:105018008D8018448142C0F28F8018448142C0F2CA
:10502800998018448142C0F2998018448142C0F2A4
:10503800A68018448142C0F2C58018448142C0F25B
:10504800BF8018448142C0F2988018448142C0F25F
:10505800928018448142C0F28C8018448142C0F288
:10506800868003449942ACBF14210F21142E1FD00F
:10507800142D1DD0BCF1140F1AD0142918D005EB2B
:1050880006160CEB061601EB06114B09581E2E28C6
:1050980023D98B091D48173BB3F57A7F446988BF2C
:1050A8000023D36014B9C1F3001141610023936058
:1050B80003B0BDE8F08F1421D8E74FF0140C8FE748
:1050C800142543E71426F9E60026F7E60021CDE784
:1050D8004FF0000C84E7002538E782F8C530E7E791
:1050E8000121C3E7012531E74FF0010C78E70126DC
:1050F800E4E64FF0020C73E70226DFE60221B5E78B
:1051080040000020CC030020ABAAAAAAD8040020A3
:1051180002251BE74FF0030C62E70321A6E70325EE
:1051280014E70326CAE64FF0040C59E704219DE76B
:1051380004250BE70426C1E6052197E70526BDE609
:105148004FF0050C4CE7052500E74FF0060C47E744
:105158000625FBE6062189E70626AFE6072185E74F
:105168000726ABE64FF0070C3AE70725EEE60E21D7
:105178007CE70D217AE70C2178E70B2176E70821F7
:1051880074E708269AE60A2698E6092696E60E2681
:1051980094E60D2692E60C2690E60B268EE64FF056
:1051A800080C1DE70825D1E60A25CFE60925CDE636
:1051B8000E25CBE60D25C9E60C25C7E60B25C5E669
:1051C8000A2153E7092151E74FF00A0C08E74FF08D
:1051D800090C05E74FF00E0C02E74FF00D0CFFE647
:1051E8004FF00C0CFCE64FF00B0CF9E608B5064B3B
:1051F800064A1A60184610225A60FDF7EFFA044B67
:105208003022DA6708BD00BF5C0100200040014081
:10521800CC030020431E00283AD000BF00BF00BFC7
:1052280000BF00BF00BF00BF00BF00BF00BF00BF7E
:1052380000BF00BF00BF00BF00BF00BF00BF00BF6E
:1052480000BF00BF00BF00BF00BF00BF00BF00BF5E
:1052580000BF00BF00BF00BF00BF00BF00BF00BF4E
:1052680000BF00BF00BF00BF00BF00BF00BF00BF3E
:1052780000BF00BF00BF00BF00BF00BF00BF00BF2E
:1052880000BF00BF00BF00BF00BF13F1FF33C4D28F
:10529800704700BF0C20FFF7BDBF00BF0C4BB0F537
:1052A8007A7F9B680DD823B140F22623984228BF05
:1052B8001846084B084A1B681060586398631864BE
:1052C8007047002B40F2262008BF4FF47A70F0E7B1
:1052D800D80400208C030020B80400202D490B6A54
:1052E8004F2B55D991ED116ADFED2B6A91ED107AAC
:1052F8008A6B086D294BC6EE267AF0B4CC6B284E23
:10530800284D9C7082B0C2F50062A6FB0212A5FB74
:105318000001BCEEC77AFCEEE77AC4F307208DEDF6
:10532800017ACDED007ABDF8045058709208BDF8A6
:1053380000001D7149090A32C1F307262F0AD2B2AB
:10534800050A987119721C461A70DF705D71DE715A
:10535800194603F1080000235340082213F0800F78
:1053680002F1FF324FEA430318BF83F0070312F03C
:10537800FF02DBB2F2D1814202D011F8012FEBE734
:105388000649094863720A2202B0F0BCFDF798BDCD
:10539800704700BFCC0300200000614534000020A6
:1053A800398EE3381F85EB51780200202DE9F84F3C
:1053B8008F4F904C97F8C4E049004FF0904C84FB15
:1053C80001544FF00008054691461E46A4EBE174CF
:1053D800CCF81480BEF1000F00F0FF80864BDFF898
:1053E80024B29B68DBF80010844A002B40F2262385
:1053F80008BF4FF47A734B638B630B6480490120B9
:105408004FF02A0E0B60506011464FF090404FF05D
:105418000008C2F800E0C7F80080FCF755F805203E
:10542800FBF704FB002D00F0BA8001224FF4004185
:105438004FF09040FCF738F9B246002E00F0A080FB
:10544800012211464FF09040FCF72EF9002204216A
:105458004FF09040FCF728F9042210214FF09040BB
:10546800FCF722F9002202214FF09040FCF71CF9CA
:10547800002208214FF09040FCF716F9202211462F
:105488004FF09040FCF710F90A20FFF7C3FE002206
:1054980001214FF09040FCF707F9002204214FF05A
:1054A8009040FCF701F9002210214FF09040FCF7E2
:1054B800FBF8002202214FF09040FCF7F5F800229B
:1054C80008214FF09040FCF7EFF8002220214FF020
:1054D8009040FCF7E9F82046FFF79CFE01221146B0
:1054E8004FF09040FCF7E0F8002204214FF0904084
:1054F800FCF7DAF8042210214FF09040FCF7D4F8BA
:10550800082202214FF09040FCF7CEF80022082133
:105518004FF09040FCF7C8F8002220214FF090404F
:10552800FCF7C2F80A20FFF775FE002201214FF0B0
:105538009040FCF7B9F8002204214FF09040FCF7A6
:10554800B3F8002210214FF09040FCF7ADF800228C
:1055580002214FF09040FCF7A7F8002208214FF0F5
:105568009040FCF7A1F8002220214FF09040FCF772
:105578009BF82046FFF74EFEBAF1010A7FF460AFB0
:1055880000224FF400414FF09040FCF78DF8484658
:10559800FFF740FE013DC7F800807FF446AFDBF817
:1055A800002017484FF09041002353630360936332
:1055B800052013644B61FBF739FA97F8C4300BB137
:1055C800BDE8F88F0C20FBF755FE0E20FBF752FEC6
:1055D8002520BDE8F84FFBF74DBE0C20FBF756FE23
:1055E8000E20FBF753FE2520FBF750FEF6E600BF22
:1055F800CC03002056555555D8040020A40400209B
:10560800B80400208C03002010B50D4C9620FBF741
:105618000DFA224664234FF416710120FFF7C6FEE7
:105628009620FBF703FA22460120642340F24C41FE
:10563800FFF7BCFE6420BDE81040FBF7F7B900BFD8
:10564800803801002DE9F0411649174D174A184BCB
:105658000020012468614860C86048610C608C6063
:105668000C614FF480504FF400644FF400514FF038
:1056780013084FF0250C4FF0260E0B270D26162584
:10568800C2F80080C2F804C0C2F808E0D76016610A
:1056980055611C60DC605860186199605961BDE80B
:1056A800F08100BFF4000020B8040020DC000020D6
:1056B800C40000202DE9F0411549164D164B174A34
:1056C8000120002468614861C86048600C618C60F2
:1056D8000C604FF480504FF400544FF400614FF0C9
:1056E80013084FF0250C4FF0260E0B270D26162514
:1056F800C2F81480C2F810C0C2F80CE082E8E000DA
:105708005C619C6018615860D9601960BDE8F081DF
:10571800F4000020B8040020C4000020DC000020B1
:10572800F8B5184D184C194BC4F8B8300F2204209E
:105738001421EA6028274EF660221626A061A1648B
:10574800C4F8C030626122622761A662FFF77AFF5F
:10575800FEF7D8FE4FF4006320210D48A363FBF742
:105768009DFF30B9A861FFF76DFF0A4BC4F8BC3044
:10577800F8BD0123AB61FFF79DFF074BC4F8BC30B0
:10578800F8BD00BFB8040020CC0300209D520008DB
:105798000004004855360008AD37000838B54A4CB3
:1057A80094F8C50001286AD002286DD003286DD06E
:1057B800042852D005285FD015281BD014282DD1D5
:1057C800D4F8AC300133052BC4F8AC3022D93F4BA8
:1057D8009B69002B5DD0012B19D1FFF76BFF32239A
:1057E8003B4A4FF416710120FFF7E0FD394BC4F82E
:1057F800BC300CE0D4F8AC300133052BC4F8AC3025
:1058080008D9324B9D69012D50D0002DE5D00023D9
:10581800C4F8AC30002384F8C53038BD162811D040
:105828001A2804D02D28F5D02E28F3D038BD002210
:105838004FF400414FF09040FBF736FF002384F807
:10584800C53038BD01224FF400414FF09040FBF7BE
:105858002BFF002384F8C53038BD4FF4C8731C4AA9
:1058680040F24C410120FFF7A1FD6420FBF7DEF870
:10587800002384F8C53038BD4FF4FA73EFE764238A
:10588800134A40F24C41EEE7C823E8E74FF4967319
:10589800E5E7FFF7D7FE32230D4A4FF416710120D2
:1058A800FFF784FD0C4BC4F8BC30B0E7FFF7CAFE25
:1058B80032232846064A4FF41671FFF777FD064B48
:1058C800C4F8BC30A3E700BFCC030020B804002014
:1058D80080380100AD370008553600080000000088
:1058E8002DE9F0414A4D0123002455F8231055F8BD
:1058F8002420914238BF1C460133202BF5D104F1F6
:105908001F071F2F88BF04F1FF37DFF80C8155F8F8
:10591800276055F82420D8F85C30B61A9E4243D93F
:10592800D8F858309E423FD255F8270055F8243011
:10593800C01AFAF79DFD32A3D3E90023FAF70EFE49
:10594800FBF71EF855F8272055F82430C8F85800FA
:10595800D01AFAF78DFD2CA3D3E90023FAF7FEFD40
:10596800FBF70EF82B4BC8F85C00A3FB06231B09BA
:105978001F2CC8F8683004F101038CBFA4F1200281
:1059880022461F2B88BFA4F11F0355F8233055F872
:1059980022209B1AB3EB561F2FD2B3EB961F8CBF56
:1059A80001200020BDE8F08155F8270055F8243083
:1059B800C01AFAF75DFD12A3D3E90023FAF7CEFD6A
:1059C800FAF7DEFF55F8272055F82430C8F85800B4
:1059D800D01AFAF74DFD0CA3D3E90023FAF7BEFD60
:1059E800FAF7CEFF0B4BC8F85C00A3FB0636360966
:1059F800C8F868600020BDE8F0810020BDE8F081AB
:105A08009A9999999999F13FCDCCCCCCCCCCEC3FD3
:105A18004000002009CB3D8DCC0300200000000091
:105A28002DE9F041464D0123002455F8231055F87F
:105A38002420914238BF1C460133082BF5D1E71DBD
:105A4800072F88BF04F1FF37DFF8088155F8276072
:105A580055F82420D8F86430B61A9E423FD9D8F8B1
:105A680060309E423BD255F8270055F82430C01AC2
:105A7800FAF7FEFC0022334BFAF770FDFAF780FFC5
:105A880055F8272055F82430C8F86000D01AFAF7DE
:105A9800EFFC29A3D3E90023FAF760FDFAF770FFBA
:105AA800621C294B55F82220284955F82440C8F88B
:105AB8006400121BA3FB0603A1FB06019B08B2EBC3
:105AC800D10FC8F8683032D2214B7608A3FB0636CE
